{
  "contractName": "Hi",
  "abi": [
    {
      "constant": true,
      "inputs": [],
      "name": "test",
      "outputs": [
        {
          "name": "",
          "type": "bool"
        }
      ],
      "payable": false,
      "stateMutability": "pure",
      "type": "function"
    }
  ],
  "bytecode": "0x6080604052348015600f57600080fd5b5060828061001e6000396000f3fe6080604052348015600f57600080fd5b506004361060285760003560e01c8063f8a8fd6d14602d575b600080fd5b6033604d565b604051808215151515815260200191505060405180910390f35b6000600190509056fea165627a7a723058206e2ea957dd0c120045f62a0a4a5828e2006137ff39f8a915803c986f54a5ff050029",
  "source": "pragma solidity ^0.5.8; // Truffle supports till 5.8\r\n\r\n\r\ncontract Hi {\r\n    function test() public pure returns(bool) {\r\n        return true; \r\n    }\r\n}",
  "sourcePath": "C:/Users/matth/OneDrive/Documents/GitHub/Blockchain-/Ethereum/TruffleTest/contracts/Hi.sol",
  "compiler": {
    "name": "solc",
    "version": "0.5.8+commit.23d335f2.Emscripten.clang"
  },
  "schemaVersion": "3.0.16",
  "updatedAt": "2019-11-04T15:41:50.125Z",
  "devdoc": {
    "methods": {}
  },
  "userdoc": {
    "methods": {}
  }
}